:100000000C9434000C9451000C9451000C94510049
:100010000C9451000C9451000C9451000C9451001C
:100020000C9451000C9451000C9451000C9451000C
:100030000C9451000C9451000C9462010C945100EA
:100040000C9451000C9451000C94A9010C94510093
:100050000C9451000C9451000C9451000C945100DC
:100060000C9451000C94510011241FBECFEFD8E026
:10007000DEBFCDBF12E0A0E0B1E0E8E0F5E002C0F5
:1000800005900D92AC3FB107D9F723E0ACEFB2E099
:1000900001C01D92A232B207E1F70E9418020C942F
:1000A00082020C9400008093BB0084E88093BC0023
:1000B000ECEBF0E080818823ECF70895CF93C82F14
:1000C00084EA8093BC00ECEBF0E080818823ECF7BD
:1000D00088E70E94530080E00E9453008C2F0E940A
:1000E000530084E98093BC00ECEBF0E0808184FD58
:1000F000FDCFCF910895CF93C82F84EA8093BC00A1
:10010000ECEBF0E080818823ECF788E70E94530055
:1001100080E40E9453008C2F0E94530084E9809356
:10012000BC00ECEBF0E0808184FDFDCFCF91089521
:10013000CF93DF9381E20E945E0080E00E945E0028
:100140008FE70E945E0082E20E945E0080E00E94D3
:100150005E0087E00E945E00C0E0D4E080E00E9484
:100160007B002197D9F7DF91CF91089582E08093AA
:10017000B8001092B9002FEF80E792E02150804044
:100180009040E1F700C000008EEA0E945E0085ED1D
:100190000E945E0080E80E945E0088EA0E945E0085
:1001A0008FE30E945E0083ED0E945E0080E00E946B
:1001B0005E0080E40E945E008DE80E945E0084E1A3
:1001C0000E945E0080E20E945E0080E00E945E006D
:1001D00081EA0E945E0088EC0E945E008AED0E9427
:1001E0005E0082E10E945E0081E80E945E008FEC6A
:1001F0000E945E0089ED0E945E0081EF0E945E0019
:100200008BED0E945E0080E40E945E0084EA0E9402
:100210005E0086EA0E945E008FEA0E945E000E94F5
:1002200098000895CF93DF93C82FD62F81E20E94C4
:100230005E008C2F880F8C0F880F0E945E008FE766
:100240000E945E0082E20E945E008D2F0E945E008E
:1002500087E00E945E00DF91CF9108950F931F9376
:10026000CF93DF9390EE980F9F3508F08FE390E0E7
:100270008097EC01CC0FDD1FCC0FDD1FC80FD91FFD
:10028000C050DF4F8E010B5F1F4F89910E947B0092
:10029000C017D107D1F780E00E947B00DF91CF919A
:1002A0001F910F910895CF93DF93EC0188818823EC
:1002B00031F021960E942E0189918111FBCFDF91AF
:1002C000CF9108951F920F920FB60F9211242F9382
:1002D0008F939F93EF93FF938091FF02882319F1EF
:1002E0008091000381111FC08091FD029091FE0258
:1002F00001969093FE028093FD028091FD02909101
:10030000FE028C32914078F0E0910103F0E0EE5F64
:10031000FC4F108281E0809300031092FE02109245
:10032000FD021092FF02FF91EF919F918F912F910B
:100330000F900FBE0F901F9018951092C50083E389
:100340008093C40088E98093C10086E08093C20056
:1003500008951F920F920FB60F9211242F938F932F
:100360009F93EF93FF938091C600909100039111AA
:1003700055C08A3011F08D30A9F480910103882393
:1003800009F44CC0E0910103F0E0EE5FFC4F1082F5
:1003900081E0809300031092FE021092FD02109201
:1003A000FF023CC0909101039F3148F5E0910103A9
:1003B00091E09E0F90930103F0E0EE5FFC4F80838D
:1003C0001092FE021092FD0281E08093FF02809164
:1003D000FC028F5F8093FC028091FC02873018F052
:1003E00081E08093FC022091FC0281E090E002C059
:1003F000880F991F2A95E2F7815085B90FC0E091C7
:100400000103F0E0EE5FFC4F108281E08093000377
:100410001092FE021092FD021092FF02FF91EF91E6
:100420009F918F912F910F900FBE0F901F90189555
:10043000CF93DF93CDB7DEB7A0970FB6F894DEBFAA
:100440000FBECDBF84B18F6384B915B80E949D01E2
:1004500082E084BD93E095BD99EF97BD80936E00D7
:100460000E94B60078940E94980060E080E00E94AC
:1004700012018BED92E00E94530162E080E00E9445
:1004800012018AEE92E00E945301809100038823BA
:10049000E1F3F89440E250E062E073E0CE010196AF
:1004A0000E94730210920103109200031092FF0247
:1004B0001092FE021092FD0278941092FC0215B880
:1004C0000E94980060E080E00E94120185EF92E0B7
:1004D0000E94530162E080E00E941201CE01019669
:1004E0000E945301D2CFFB01DC014150504048F043
:1004F00001900D920020C9F701C01D92415050405B
:08050000E0F70895F894FFCF25
:10050800000000000000005F000000070007001462
:100518007F147F14242A7F2A122313086462364921
:100528005522500005030000001C22410000412212
:100538001C0014083E081408083E08080050300043
:10054800000808080808006060000020100804027D
:100558003E5149453E00427F400042615149462193
:1005680041454B311814127F1027454545393C4AFF
:10057800494930017109050336494949360649494F
:10058800291E0036360000005636000008142241A5
:10059800001414141414004122140802015109060D
:1005A800324979413E7E1111117E7F494949363ED3
:1005B800414141227F4141221C7F494949417F09EC
:1005C8000909013E4149497A7F0808087F00417FAF
:1005D80041002040413F017F081422417F404040B4
:1005E800407F020C027F7F0408107F3E4141413E5C
:1005F8007F090909063E4151215E7F0919294646AE
:100608004949493101017F01013F4040403F1F20D6
:1006180040201F3F4038403F6314081463070870A8
:1006280008076151494543007F4141000204081011
:10063800200041417F000402010204404040404044
:10064800000102040020545454787F484444383848
:1006580044444420384444487F3854545418087E4D
:100668000901020C5252523E7F0804047800447D6E
:1006780040002040443D007F1028440000417F4056
:10068800007C041804787C0804047838444444380E
:100698007C14141408081414187C7C0804040848F2
:1006A80054545420043F4440203C4040207C1C20AB
:1006B80040201C3C4030403C44281028440C5050FA
:1006C800503C4464544C44000836410000007F000C
:1006D800000041360800100808100853706565636B
:1006E8006820746F204F4C45440057616974696EE7
:0C06F800672E2E2E0048656172643A00E7
:00000001FF
